{
  "address": "0xD8E9d99a7472588f89043FA7C639B3C94a551274",
  "abi": [
    {
      "inputs": [],
      "stateMutability": "nonpayable",
      "type": "constructor"
    },
    {
      "anonymous": false,
      "inputs": [
        {
          "indexed": true,
          "internalType": "address",
          "name": "owner",
          "type": "address"
        },
        {
          "indexed": true,
          "internalType": "string",
          "name": "documentHash",
          "type": "string"
        },
        {
          "indexed": false,
          "internalType": "uint256",
          "name": "timestamp",
          "type": "uint256"
        },
        {
          "indexed": false,
          "internalType": "string",
          "name": "imageURI",
          "type": "string"
        },
        {
          "indexed": false,
          "internalType": "string",
          "name": "description",
          "type": "string"
        }
      ],
      "name": "DocumentNotarized",
      "type": "event"
    },
    {
      "anonymous": false,
      "inputs": [
        {
          "indexed": true,
          "internalType": "address",
          "name": "requester",
          "type": "address"
        },
        {
          "indexed": true,
          "internalType": "string",
          "name": "documentHash",
          "type": "string"
        },
        {
          "indexed": false,
          "internalType": "uint256",
          "name": "timestamp",
          "type": "uint256"
        }
      ],
      "name": "DocumentRetrieved",
      "type": "event"
    },
    {
      "anonymous": false,
      "inputs": [
        {
          "indexed": true,
          "internalType": "address",
          "name": "owner",
          "type": "address"
        },
        {
          "indexed": true,
          "internalType": "string",
          "name": "documentHash",
          "type": "string"
        },
        {
          "indexed": false,
          "internalType": "uint256",
          "name": "timestamp",
          "type": "uint256"
        }
      ],
      "name": "DocumentRevoked",
      "type": "event"
    },
    {
      "inputs": [
        {
          "internalType": "string",
          "name": "",
          "type": "string"
        }
      ],
      "name": "documents",
      "outputs": [
        {
          "internalType": "uint256",
          "name": "timestamp",
          "type": "uint256"
        },
        {
          "internalType": "address",
          "name": "owner",
          "type": "address"
        },
        {
          "internalType": "string",
          "name": "hash",
          "type": "string"
        },
        {
          "internalType": "string",
          "name": "imageURI",
          "type": "string"
        },
        {
          "internalType": "string",
          "name": "description",
          "type": "string"
        },
        {
          "internalType": "bool",
          "name": "revoked",
          "type": "bool"
        }
      ],
      "stateMutability": "view",
      "type": "function"
    },
    {
      "inputs": [],
      "name": "getAllDocuments",
      "outputs": [
        {
          "components": [
            {
              "internalType": "uint256",
              "name": "timestamp",
              "type": "uint256"
            },
            {
              "internalType": "address",
              "name": "owner",
              "type": "address"
            },
            {
              "internalType": "string",
              "name": "hash",
              "type": "string"
            },
            {
              "internalType": "string",
              "name": "imageURI",
              "type": "string"
            },
            {
              "internalType": "string",
              "name": "description",
              "type": "string"
            },
            {
              "internalType": "bool",
              "name": "revoked",
              "type": "bool"
            }
          ],
          "internalType": "struct Notary.Document[]",
          "name": "",
          "type": "tuple[]"
        }
      ],
      "stateMutability": "view",
      "type": "function"
    },
    {
      "inputs": [
        {
          "internalType": "string",
          "name": "_hash",
          "type": "string"
        },
        {
          "internalType": "string",
          "name": "_imageURI",
          "type": "string"
        },
        {
          "internalType": "string",
          "name": "_description",
          "type": "string"
        }
      ],
      "name": "notarizeDocument",
      "outputs": [],
      "stateMutability": "nonpayable",
      "type": "function"
    },
    {
      "inputs": [],
      "name": "owner",
      "outputs": [
        {
          "internalType": "address",
          "name": "",
          "type": "address"
        }
      ],
      "stateMutability": "view",
      "type": "function"
    },
    {
      "inputs": [
        {
          "internalType": "string",
          "name": "_hash",
          "type": "string"
        }
      ],
      "name": "retrieveDocument",
      "outputs": [
        {
          "components": [
            {
              "internalType": "uint256",
              "name": "timestamp",
              "type": "uint256"
            },
            {
              "internalType": "address",
              "name": "owner",
              "type": "address"
            },
            {
              "internalType": "string",
              "name": "hash",
              "type": "string"
            },
            {
              "internalType": "string",
              "name": "imageURI",
              "type": "string"
            },
            {
              "internalType": "string",
              "name": "description",
              "type": "string"
            },
            {
              "internalType": "bool",
              "name": "revoked",
              "type": "bool"
            }
          ],
          "internalType": "struct Notary.Document",
          "name": "",
          "type": "tuple"
        }
      ],
      "stateMutability": "view",
      "type": "function"
    },
    {
      "inputs": [
        {
          "internalType": "string",
          "name": "_hash",
          "type": "string"
        }
      ],
      "name": "revokeDocument",
      "outputs": [],
      "stateMutability": "nonpayable",
      "type": "function"
    },
    {
      "inputs": [
        {
          "internalType": "address",
          "name": "",
          "type": "address"
        },
        {
          "internalType": "uint256",
          "name": "",
          "type": "uint256"
        }
      ],
      "name": "userDocuments",
      "outputs": [
        {
          "internalType": "string",
          "name": "",
          "type": "string"
        }
      ],
      "stateMutability": "view",
      "type": "function"
    },
    {
      "inputs": [
        {
          "internalType": "string",
          "name": "_hash",
          "type": "string"
        }
      ],
      "name": "verifyDocument",
      "outputs": [
        {
          "internalType": "uint256",
          "name": "",
          "type": "uint256"
        },
        {
          "internalType": "address",
          "name": "",
          "type": "address"
        },
        {
          "internalType": "string",
          "name": "",
          "type": "string"
        },
        {
          "internalType": "string",
          "name": "",
          "type": "string"
        },
        {
          "internalType": "bool",
          "name": "",
          "type": "bool"
        }
      ],
      "stateMutability": "view",
      "type": "function"
    }
  ],
  "transactionHash": "0x69184d141420cdc4d2dd8eba06e74766bc9ea47628400a89c053c356d65b1833",
  "args": [],
  "numDeployments": 1,
  "solcInputHash": "67457c919ff21b065d568f6c59eea3cd",
  "bytecode": "0x608060405234801561001057600080fd5b50600080546001600160a01b031916331790556114e3806100326000396000f3fe608060405234801561001057600080fd5b50600436106100885760003560e01c80639fa5f50b1161005b5780639fa5f50b14610116578063a46d0ad61461012b578063b3dd697b1461013e578063beee5eb71461016357600080fd5b8063029ba59b1461008d578063577a1b92146100a25780635aa338f4146100cb5780638da5cb5b146100eb575b600080fd5b6100a061009b366004610fc6565b610187565b005b6100b56100b0366004611003565b610315565b6040516100c2919061108b565b60405180910390f35b6100de6100d9366004610fc6565b6103ce565b6040516100c29190611122565b6000546100fe906001600160a01b031681565b6040516001600160a01b0390911681526020016100c2565b61011e6105e8565b6040516100c29190611135565b6100a0610139366004611197565b610957565b61015161014c366004610fc6565b610b11565b6040516100c29695949392919061121f565b610176610171366004610fc6565b610cfa565b6040516100c2959493929190611285565b80336001600160a01b03166001826040516101a291906112d6565b908152604051908190036020019020600101546001600160a01b03161461021f5760405162461bcd60e51b815260206004820152602660248201527f596f7520617265206e6f7420746865206f776e6572206f66207468697320646f60448201526518dd5b595b9d60d21b60648201526084015b60405180910390fd5b8160018160405161023091906112d6565b9081526040519081900360200190206005015460ff16156102935760405162461bcd60e51b815260206004820152601e60248201527f5468697320646f63756d656e7420686173206265656e207265766f6b656400006044820152606401610216565b600180846040516102a491906112d6565b908152604051908190036020018120600501805492151560ff19909316929092179091556102d39084906112d6565b6040519081900381204282529033907f232011ba6d545e8e8f05c68183f32de302454dd4e75ab5fc1ab88a9db176c81e906020015b60405180910390a3505050565b6002602052816000526040600020818154811061033157600080fd5b9060005260206000200160009150915050805461034d906112f2565b80601f0160208091040260200160405190810160405280929190818152602001828054610379906112f2565b80156103c65780601f1061039b576101008083540402835291602001916103c6565b820191906000526020600020905b8154815290600101906020018083116103a957829003601f168201915b505050505081565b6103d6610ee2565b6001826040516103e691906112d6565b90815260408051918290036020908101832060c0840183528054845260018101546001600160a01b031691840191909152600281018054919284019161042b906112f2565b80601f0160208091040260200160405190810160405280929190818152602001828054610457906112f2565b80156104a45780601f10610479576101008083540402835291602001916104a4565b820191906000526020600020905b81548152906001019060200180831161048757829003601f168201915b505050505081526020016003820180546104bd906112f2565b80601f01602080910402602001604051908101604052809291908181526020018280546104e9906112f2565b80156105365780601f1061050b57610100808354040283529160200191610536565b820191906000526020600020905b81548152906001019060200180831161051957829003601f168201915b5050505050815260200160048201805461054f906112f2565b80601f016020809104026020016040519081016040528092919081815260200182805461057b906112f2565b80156105c85780601f1061059d576101008083540402835291602001916105c8565b820191906000526020600020905b8154815290600101906020018083116105ab57829003601f168201915b50505091835250506005919091015460ff16151560209091015292915050565b336000908152600260205260408120546060918167ffffffffffffffff81111561061457610614610f23565b60405190808252806020026020018201604052801561064d57816020015b61063a610ee2565b8152602001906001900390816106325790505b50905060005b828110156109505733600090815260026020526040812080548390811061067c5761067c61132c565b906000526020600020018054610691906112f2565b80601f01602080910402602001604051908101604052809291908181526020018280546106bd906112f2565b801561070a5780601f106106df5761010080835404028352916020019161070a565b820191906000526020600020905b8154815290600101906020018083116106ed57829003601f168201915b5050505050905060018160405161072191906112d6565b90815260408051918290036020908101832060c0840183528054845260018101546001600160a01b0316918401919091526002810180549192840191610766906112f2565b80601f0160208091040260200160405190810160405280929190818152602001828054610792906112f2565b80156107df5780601f106107b4576101008083540402835291602001916107df565b820191906000526020600020905b8154815290600101906020018083116107c257829003601f168201915b505050505081526020016003820180546107f8906112f2565b80601f0160208091040260200160405190810160405280929190818152602001828054610824906112f2565b80156108715780601f1061084657610100808354040283529160200191610871565b820191906000526020600020905b81548152906001019060200180831161085457829003601f168201915b5050505050815260200160048201805461088a906112f2565b80601f01602080910402602001604051908101604052809291908181526020018280546108b6906112f2565b80156109035780601f106108d857610100808354040283529160200191610903565b820191906000526020600020905b8154815290600101906020018083116108e657829003601f168201915b50505091835250506005919091015460ff16151560209091015283518490849081106109315761093161132c565b602002602001018190525050808061094890611342565b915050610653565b5092915050565b60018360405161096791906112d6565b90815260405190819003602001902054156109c45760405162461bcd60e51b815260206004820152601a60248201527f446f63756d656e7420616c7265616479206e6f746172697a65640000000000006044820152606401610216565b6040805160c0810182524281523360208201528082018590526060810184905260808101839052600060a08201529051600190610a029086906112d6565b908152604080516020928190038301902083518155918301516001830180546001600160a01b0319166001600160a01b039092169190911790558201516002820190610a4e90826113b8565b5060608201516003820190610a6390826113b8565b5060808201516004820190610a7890826113b8565b5060a091909101516005909101805460ff191691151591909117905533600090815260026020908152604082208054600181018255908352912001610abd84826113b8565b5082604051610acc91906112d6565b6040518091039020336001600160a01b03167f4b96a3e6a81d384b9c9e5675b71f69d7549d9e579f9a9042bc206576f8b2160742858560405161030893929190611478565b80516020818301810180516001808352938301929094019190912092905281549082015460028301805492936001600160a01b0390921692610b52906112f2565b80601f0160208091040260200160405190810160405280929190818152602001828054610b7e906112f2565b8015610bcb5780601f10610ba057610100808354040283529160200191610bcb565b820191906000526020600020905b815481529060010190602001808311610bae57829003601f168201915b505050505090806003018054610be0906112f2565b80601f0160208091040260200160405190810160405280929190818152602001828054610c0c906112f2565b8015610c595780601f10610c2e57610100808354040283529160200191610c59565b820191906000526020600020905b815481529060010190602001808311610c3c57829003601f168201915b505050505090806004018054610c6e906112f2565b80601f0160208091040260200160405190810160405280929190818152602001828054610c9a906112f2565b8015610ce75780601f10610cbc57610100808354040283529160200191610ce7565b820191906000526020600020905b815481529060010190602001808311610cca57829003601f168201915b5050506005909301549192505060ff1686565b6000806060806000600186604051610d1291906112d6565b9081526040519081900360200181205490600190610d319089906112d6565b9081526040519081900360200181206001908101546001600160a01b031691610d5b908a906112d6565b9081526020016040518091039020600301600189604051610d7c91906112d6565b908152602001604051809103902060040160018a604051610d9d91906112d6565b90815260405190819003602001902060050154825460ff909116908390610dc3906112f2565b80601f0160208091040260200160405190810160405280929190818152602001828054610def906112f2565b8015610e3c5780601f10610e1157610100808354040283529160200191610e3c565b820191906000526020600020905b815481529060010190602001808311610e1f57829003601f168201915b50505050509250818054610e4f906112f2565b80601f0160208091040260200160405190810160405280929190818152602001828054610e7b906112f2565b8015610ec85780601f10610e9d57610100808354040283529160200191610ec8565b820191906000526020600020905b815481529060010190602001808311610eab57829003601f168201915b505050505091509450945094509450945091939590929450565b6040518060c001604052806000815260200160006001600160a01b031681526020016060815260200160608152602001606081526020016000151581525090565b634e487b7160e01b600052604160045260246000fd5b600082601f830112610f4a57600080fd5b813567ffffffffffffffff80821115610f6557610f65610f23565b604051601f8301601f19908116603f01168101908282118183101715610f8d57610f8d610f23565b81604052838152866020858801011115610fa657600080fd5b836020870160208301376000602085830101528094505050505092915050565b600060208284031215610fd857600080fd5b813567ffffffffffffffff811115610fef57600080fd5b610ffb84828501610f39565b949350505050565b6000806040838503121561101657600080fd5b82356001600160a01b038116811461102d57600080fd5b946020939093013593505050565b60005b8381101561105657818101518382015260200161103e565b50506000910152565b6000815180845261107781602086016020860161103b565b601f01601f19169290920160200192915050565b60208152600061109e602083018461105f565b9392505050565b8051825260018060a01b0360208201511660208301526000604082015160c060408501526110d660c085018261105f565b9050606083015184820360608601526110ef828261105f565b91505060808301518482036080860152611109828261105f565b91505060a0830151151560a08501528091505092915050565b60208152600061109e60208301846110a5565b6000602080830181845280855180835260408601915060408160051b870101925083870160005b8281101561118a57603f198886030184526111788583516110a5565b9450928501929085019060010161115c565b5092979650505050505050565b6000806000606084860312156111ac57600080fd5b833567ffffffffffffffff808211156111c457600080fd5b6111d087838801610f39565b945060208601359150808211156111e657600080fd5b6111f287838801610f39565b9350604086013591508082111561120857600080fd5b5061121586828701610f39565b9150509250925092565b8681526001600160a01b038616602082015260c0604082018190526000906112499083018761105f565b828103606084015261125b818761105f565b9050828103608084015261126f818661105f565b91505082151560a0830152979650505050505050565b8581526001600160a01b038516602082015260a0604082018190526000906112af9083018661105f565b82810360608401526112c1818661105f565b91505082151560808301529695505050505050565b600082516112e881846020870161103b565b9190910192915050565b600181811c9082168061130657607f821691505b60208210810361132657634e487b7160e01b600052602260045260246000fd5b50919050565b634e487b7160e01b600052603260045260246000fd5b60006001820161136257634e487b7160e01b600052601160045260246000fd5b5060010190565b601f8211156113b357600081815260208120601f850160051c810160208610156113905750805b601f850160051c820191505b818110156113af5782815560010161139c565b5050505b505050565b815167ffffffffffffffff8111156113d2576113d2610f23565b6113e6816113e084546112f2565b84611369565b602080601f83116001811461141b57600084156114035750858301515b600019600386901b1c1916600185901b1785556113af565b600085815260208120601f198616915b8281101561144a5788860151825594840194600190910190840161142b565b50858210156114685787850151600019600388901b60f8161c191681555b5050505050600190811b01905550565b838152606060208201526000611491606083018561105f565b82810360408401526114a3818561105f565b969550505050505056fea264697066735822122050d99af688fdaa5dff8f9f662a1a573689d216a21dae7965b71a9ceea459e9fe64736f6c63430008110033",
  "devdoc": {
    "kind": "dev",
    "methods": {},
    "version": 1
  },
  "userdoc": {
    "kind": "user",
    "methods": {},
    "version": 1
  },
  "storageLayout": {
    "storage": [
      {
        "astId": 3,
        "contract": "contracts/Notary.sol:Notary",
        "label": "owner",
        "offset": 0,
        "slot": "0",
        "type": "t_address"
      },
      {
        "astId": 21,
        "contract": "contracts/Notary.sol:Notary",
        "label": "documents",
        "offset": 0,
        "slot": "1",
        "type": "t_mapping(t_string_memory_ptr,t_struct(Document)16_storage)"
      },
      {
        "astId": 26,
        "contract": "contracts/Notary.sol:Notary",
        "label": "userDocuments",
        "offset": 0,
        "slot": "2",
        "type": "t_mapping(t_address,t_array(t_string_storage)dyn_storage)"
      }
    ],
    "types": {
      "t_address": {
        "encoding": "inplace",
        "label": "address",
        "numberOfBytes": "20"
      },
      "t_array(t_string_storage)dyn_storage": {
        "base": "t_string_storage",
        "encoding": "dynamic_array",
        "label": "string[]",
        "numberOfBytes": "32"
      },
      "t_bool": {
        "encoding": "inplace",
        "label": "bool",
        "numberOfBytes": "1"
      },
      "t_mapping(t_address,t_array(t_string_storage)dyn_storage)": {
        "encoding": "mapping",
        "key": "t_address",
        "label": "mapping(address => string[])",
        "numberOfBytes": "32",
        "value": "t_array(t_string_storage)dyn_storage"
      },
      "t_mapping(t_string_memory_ptr,t_struct(Document)16_storage)": {
        "encoding": "mapping",
        "key": "t_string_memory_ptr",
        "label": "mapping(string => struct Notary.Document)",
        "numberOfBytes": "32",
        "value": "t_struct(Document)16_storage"
      },
      "t_string_memory_ptr": {
        "encoding": "bytes",
        "label": "string",
        "numberOfBytes": "32"
      },
      "t_string_storage": {
        "encoding": "bytes",
        "label": "string",
        "numberOfBytes": "32"
      },
      "t_struct(Document)16_storage": {
        "encoding": "inplace",
        "label": "struct Notary.Document",
        "members": [
          {
            "astId": 5,
            "contract": "contracts/Notary.sol:Notary",
            "label": "timestamp",
            "offset": 0,
            "slot": "0",
            "type": "t_uint256"
          },
          {
            "astId": 7,
            "contract": "contracts/Notary.sol:Notary",
            "label": "owner",
            "offset": 0,
            "slot": "1",
            "type": "t_address"
          },
          {
            "astId": 9,
            "contract": "contracts/Notary.sol:Notary",
            "label": "hash",
            "offset": 0,
            "slot": "2",
            "type": "t_string_storage"
          },
          {
            "astId": 11,
            "contract": "contracts/Notary.sol:Notary",
            "label": "imageURI",
            "offset": 0,
            "slot": "3",
            "type": "t_string_storage"
          },
          {
            "astId": 13,
            "contract": "contracts/Notary.sol:Notary",
            "label": "description",
            "offset": 0,
            "slot": "4",
            "type": "t_string_storage"
          },
          {
            "astId": 15,
            "contract": "contracts/Notary.sol:Notary",
            "label": "revoked",
            "offset": 0,
            "slot": "5",
            "type": "t_bool"
          }
        ],
        "numberOfBytes": "192"
      },
      "t_uint256": {
        "encoding": "inplace",
        "label": "uint256",
        "numberOfBytes": "32"
      }
    }
  }
}