{
  "address": "0x5635400f2586f91941a40a01C12d52F130F0E682",
  "abi": [
    {
      "inputs": [],
      "stateMutability": "nonpayable",
      "type": "constructor"
    },
    {
      "anonymous": false,
      "inputs": [
        {
          "indexed": true,
          "internalType": "address",
          "name": "owner",
          "type": "address"
        },
        {
          "indexed": true,
          "internalType": "string",
          "name": "documentHash",
          "type": "string"
        },
        {
          "indexed": false,
          "internalType": "uint256",
          "name": "timestamp",
          "type": "uint256"
        },
        {
          "indexed": false,
          "internalType": "string",
          "name": "imageURI",
          "type": "string"
        },
        {
          "indexed": false,
          "internalType": "string",
          "name": "description",
          "type": "string"
        }
      ],
      "name": "DocumentNotarized",
      "type": "event"
    },
    {
      "anonymous": false,
      "inputs": [
        {
          "indexed": true,
          "internalType": "address",
          "name": "requester",
          "type": "address"
        },
        {
          "indexed": true,
          "internalType": "string",
          "name": "documentHash",
          "type": "string"
        },
        {
          "indexed": false,
          "internalType": "uint256",
          "name": "timestamp",
          "type": "uint256"
        }
      ],
      "name": "DocumentRetrieved",
      "type": "event"
    },
    {
      "anonymous": false,
      "inputs": [
        {
          "indexed": true,
          "internalType": "address",
          "name": "owner",
          "type": "address"
        },
        {
          "indexed": true,
          "internalType": "string",
          "name": "documentHash",
          "type": "string"
        },
        {
          "indexed": false,
          "internalType": "uint256",
          "name": "timestamp",
          "type": "uint256"
        },
        {
          "indexed": false,
          "internalType": "string",
          "name": "description",
          "type": "string"
        },
        {
          "indexed": false,
          "internalType": "string",
          "name": "imageURI",
          "type": "string"
        }
      ],
      "name": "DocumentRevoked",
      "type": "event"
    },
    {
      "inputs": [
        {
          "internalType": "string",
          "name": "",
          "type": "string"
        }
      ],
      "name": "documents",
      "outputs": [
        {
          "internalType": "uint256",
          "name": "timestamp",
          "type": "uint256"
        },
        {
          "internalType": "address",
          "name": "owner",
          "type": "address"
        },
        {
          "internalType": "string",
          "name": "hash",
          "type": "string"
        },
        {
          "internalType": "string",
          "name": "imageURI",
          "type": "string"
        },
        {
          "internalType": "string",
          "name": "description",
          "type": "string"
        },
        {
          "internalType": "bool",
          "name": "revoked",
          "type": "bool"
        }
      ],
      "stateMutability": "view",
      "type": "function"
    },
    {
      "inputs": [],
      "name": "getAllDocuments",
      "outputs": [
        {
          "components": [
            {
              "internalType": "uint256",
              "name": "timestamp",
              "type": "uint256"
            },
            {
              "internalType": "address",
              "name": "owner",
              "type": "address"
            },
            {
              "internalType": "string",
              "name": "hash",
              "type": "string"
            },
            {
              "internalType": "string",
              "name": "imageURI",
              "type": "string"
            },
            {
              "internalType": "string",
              "name": "description",
              "type": "string"
            },
            {
              "internalType": "bool",
              "name": "revoked",
              "type": "bool"
            }
          ],
          "internalType": "struct Notary.Document[]",
          "name": "",
          "type": "tuple[]"
        }
      ],
      "stateMutability": "view",
      "type": "function"
    },
    {
      "inputs": [
        {
          "internalType": "string",
          "name": "_hash",
          "type": "string"
        },
        {
          "internalType": "string",
          "name": "_imageURI",
          "type": "string"
        },
        {
          "internalType": "string",
          "name": "_description",
          "type": "string"
        }
      ],
      "name": "notarizeDocument",
      "outputs": [],
      "stateMutability": "nonpayable",
      "type": "function"
    },
    {
      "inputs": [],
      "name": "owner",
      "outputs": [
        {
          "internalType": "address",
          "name": "",
          "type": "address"
        }
      ],
      "stateMutability": "view",
      "type": "function"
    },
    {
      "inputs": [
        {
          "internalType": "string",
          "name": "_hash",
          "type": "string"
        }
      ],
      "name": "retrieveDocument",
      "outputs": [
        {
          "components": [
            {
              "internalType": "uint256",
              "name": "timestamp",
              "type": "uint256"
            },
            {
              "internalType": "address",
              "name": "owner",
              "type": "address"
            },
            {
              "internalType": "string",
              "name": "hash",
              "type": "string"
            },
            {
              "internalType": "string",
              "name": "imageURI",
              "type": "string"
            },
            {
              "internalType": "string",
              "name": "description",
              "type": "string"
            },
            {
              "internalType": "bool",
              "name": "revoked",
              "type": "bool"
            }
          ],
          "internalType": "struct Notary.Document",
          "name": "",
          "type": "tuple"
        }
      ],
      "stateMutability": "view",
      "type": "function"
    },
    {
      "inputs": [
        {
          "internalType": "string",
          "name": "_hash",
          "type": "string"
        }
      ],
      "name": "revokeDocument",
      "outputs": [],
      "stateMutability": "nonpayable",
      "type": "function"
    },
    {
      "inputs": [
        {
          "internalType": "address",
          "name": "",
          "type": "address"
        },
        {
          "internalType": "uint256",
          "name": "",
          "type": "uint256"
        }
      ],
      "name": "userDocuments",
      "outputs": [
        {
          "internalType": "string",
          "name": "",
          "type": "string"
        }
      ],
      "stateMutability": "view",
      "type": "function"
    },
    {
      "inputs": [
        {
          "internalType": "string",
          "name": "_hash",
          "type": "string"
        }
      ],
      "name": "verifyDocument",
      "outputs": [
        {
          "internalType": "uint256",
          "name": "",
          "type": "uint256"
        },
        {
          "internalType": "address",
          "name": "",
          "type": "address"
        },
        {
          "internalType": "string",
          "name": "",
          "type": "string"
        },
        {
          "internalType": "string",
          "name": "",
          "type": "string"
        },
        {
          "internalType": "bool",
          "name": "",
          "type": "bool"
        }
      ],
      "stateMutability": "view",
      "type": "function"
    }
  ],
  "transactionHash": "0xa4613ef65400e1e25c18bb67ebc3b50817d3a61d8b912388d3c4a771c2013a88",
  "args": [],
  "numDeployments": 2,
  "solcInputHash": "ebaf17b3c1e7c80e9605bbced95fbea2",
  "bytecode": "0x608060405234801561001057600080fd5b50600080546001600160a01b031916331790556115db806100326000396000f3fe608060405234801561001057600080fd5b50600436106100885760003560e01c80639fa5f50b1161005b5780639fa5f50b14610116578063a46d0ad61461012b578063b3dd697b1461013e578063beee5eb71461016357600080fd5b8063029ba59b1461008d578063577a1b92146100a25780635aa338f4146100cb5780638da5cb5b146100eb575b600080fd5b6100a061009b366004611016565b610187565b005b6100b56100b0366004611053565b610365565b6040516100c291906110db565b60405180910390f35b6100de6100d9366004611016565b61041e565b6040516100c29190611172565b6000546100fe906001600160a01b031681565b6040516001600160a01b0390911681526020016100c2565b61011e610638565b6040516100c29190611185565b6100a06101393660046111e7565b6109a7565b61015161014c366004611016565b610b61565b6040516100c29695949392919061126f565b610176610171366004611016565b610d4a565b6040516100c29594939291906112d5565b80336001600160a01b03166001826040516101a29190611326565b908152604051908190036020019020600101546001600160a01b03161461021f5760405162461bcd60e51b815260206004820152602660248201527f596f7520617265206e6f7420746865206f776e6572206f66207468697320646f60448201526518dd5b595b9d60d21b60648201526084015b60405180910390fd5b816001816040516102309190611326565b9081526040519081900360200190206005015460ff16156102935760405162461bcd60e51b815260206004820152601e60248201527f5468697320646f63756d656e7420686173206265656e207265766f6b656400006044820152606401610216565b600180846040516102a49190611326565b908152604051908190036020018120600501805492151560ff19909316929092179091556102d3908490611326565b6040518091039020336001600160a01b03167fd76953d41a1e2fb99fb3f017574d7fb10d337c6ba148649b22f99326027c41f9426001876040516103179190611326565b90815260200160405180910390206004016001886040516103389190611326565b9081526020016040518091039020600301604051610358939291906113f9565b60405180910390a3505050565b6002602052816000526040600020818154811061038157600080fd5b9060005260206000200160009150915050805461039d90611342565b80601f01602080910402602001604051908101604052809291908181526020018280546103c990611342565b80156104165780601f106103eb57610100808354040283529160200191610416565b820191906000526020600020905b8154815290600101906020018083116103f957829003601f168201915b505050505081565b610426610f32565b6001826040516104369190611326565b90815260408051918290036020908101832060c0840183528054845260018101546001600160a01b031691840191909152600281018054919284019161047b90611342565b80601f01602080910402602001604051908101604052809291908181526020018280546104a790611342565b80156104f45780601f106104c9576101008083540402835291602001916104f4565b820191906000526020600020905b8154815290600101906020018083116104d757829003601f168201915b5050505050815260200160038201805461050d90611342565b80601f016020809104026020016040519081016040528092919081815260200182805461053990611342565b80156105865780601f1061055b57610100808354040283529160200191610586565b820191906000526020600020905b81548152906001019060200180831161056957829003601f168201915b5050505050815260200160048201805461059f90611342565b80601f01602080910402602001604051908101604052809291908181526020018280546105cb90611342565b80156106185780601f106105ed57610100808354040283529160200191610618565b820191906000526020600020905b8154815290600101906020018083116105fb57829003601f168201915b50505091835250506005919091015460ff16151560209091015292915050565b336000908152600260205260408120546060918167ffffffffffffffff81111561066457610664610f73565b60405190808252806020026020018201604052801561069d57816020015b61068a610f32565b8152602001906001900390816106825790505b50905060005b828110156109a0573360009081526002602052604081208054839081106106cc576106cc61142e565b9060005260206000200180546106e190611342565b80601f016020809104026020016040519081016040528092919081815260200182805461070d90611342565b801561075a5780601f1061072f5761010080835404028352916020019161075a565b820191906000526020600020905b81548152906001019060200180831161073d57829003601f168201915b505050505090506001816040516107719190611326565b90815260408051918290036020908101832060c0840183528054845260018101546001600160a01b03169184019190915260028101805491928401916107b690611342565b80601f01602080910402602001604051908101604052809291908181526020018280546107e290611342565b801561082f5780601f106108045761010080835404028352916020019161082f565b820191906000526020600020905b81548152906001019060200180831161081257829003601f168201915b5050505050815260200160038201805461084890611342565b80601f016020809104026020016040519081016040528092919081815260200182805461087490611342565b80156108c15780601f10610896576101008083540402835291602001916108c1565b820191906000526020600020905b8154815290600101906020018083116108a457829003601f168201915b505050505081526020016004820180546108da90611342565b80601f016020809104026020016040519081016040528092919081815260200182805461090690611342565b80156109535780601f1061092857610100808354040283529160200191610953565b820191906000526020600020905b81548152906001019060200180831161093657829003601f168201915b50505091835250506005919091015460ff16151560209091015283518490849081106109815761098161142e565b602002602001018190525050808061099890611444565b9150506106a3565b5092915050565b6001836040516109b79190611326565b9081526040519081900360200190205415610a145760405162461bcd60e51b815260206004820152601a60248201527f446f63756d656e7420616c7265616479206e6f746172697a65640000000000006044820152606401610216565b6040805160c0810182524281523360208201528082018590526060810184905260808101839052600060a08201529051600190610a52908690611326565b908152604080516020928190038301902083518155918301516001830180546001600160a01b0319166001600160a01b039092169190911790558201516002820190610a9e90826114ba565b5060608201516003820190610ab390826114ba565b5060808201516004820190610ac890826114ba565b5060a091909101516005909101805460ff191691151591909117905533600090815260026020908152604082208054600181018255908352912001610b0d84826114ba565b5082604051610b1c9190611326565b6040518091039020336001600160a01b03167f4b96a3e6a81d384b9c9e5675b71f69d7549d9e579f9a9042bc206576f8b216074285856040516103589392919061157a565b80516020818301810180516001808352938301929094019190912092905281549082015460028301805492936001600160a01b0390921692610ba290611342565b80601f0160208091040260200160405190810160405280929190818152602001828054610bce90611342565b8015610c1b5780601f10610bf057610100808354040283529160200191610c1b565b820191906000526020600020905b815481529060010190602001808311610bfe57829003601f168201915b505050505090806003018054610c3090611342565b80601f0160208091040260200160405190810160405280929190818152602001828054610c5c90611342565b8015610ca95780601f10610c7e57610100808354040283529160200191610ca9565b820191906000526020600020905b815481529060010190602001808311610c8c57829003601f168201915b505050505090806004018054610cbe90611342565b80601f0160208091040260200160405190810160405280929190818152602001828054610cea90611342565b8015610d375780601f10610d0c57610100808354040283529160200191610d37565b820191906000526020600020905b815481529060010190602001808311610d1a57829003601f168201915b5050506005909301549192505060ff1686565b6000806060806000600186604051610d629190611326565b9081526040519081900360200181205490600190610d81908990611326565b9081526040519081900360200181206001908101546001600160a01b031691610dab908a90611326565b9081526020016040518091039020600301600189604051610dcc9190611326565b908152602001604051809103902060040160018a604051610ded9190611326565b90815260405190819003602001902060050154825460ff909116908390610e1390611342565b80601f0160208091040260200160405190810160405280929190818152602001828054610e3f90611342565b8015610e8c5780601f10610e6157610100808354040283529160200191610e8c565b820191906000526020600020905b815481529060010190602001808311610e6f57829003601f168201915b50505050509250818054610e9f90611342565b80601f0160208091040260200160405190810160405280929190818152602001828054610ecb90611342565b8015610f185780601f10610eed57610100808354040283529160200191610f18565b820191906000526020600020905b815481529060010190602001808311610efb57829003601f168201915b505050505091509450945094509450945091939590929450565b6040518060c001604052806000815260200160006001600160a01b031681526020016060815260200160608152602001606081526020016000151581525090565b634e487b7160e01b600052604160045260246000fd5b600082601f830112610f9a57600080fd5b813567ffffffffffffffff80821115610fb557610fb5610f73565b604051601f8301601f19908116603f01168101908282118183101715610fdd57610fdd610f73565b81604052838152866020858801011115610ff657600080fd5b836020870160208301376000602085830101528094505050505092915050565b60006020828403121561102857600080fd5b813567ffffffffffffffff81111561103f57600080fd5b61104b84828501610f89565b949350505050565b6000806040838503121561106657600080fd5b82356001600160a01b038116811461107d57600080fd5b946020939093013593505050565b60005b838110156110a657818101518382015260200161108e565b50506000910152565b600081518084526110c781602086016020860161108b565b601f01601f19169290920160200192915050565b6020815260006110ee60208301846110af565b9392505050565b8051825260018060a01b0360208201511660208301526000604082015160c0604085015261112660c08501826110af565b90506060830151848203606086015261113f82826110af565b9150506080830151848203608086015261115982826110af565b91505060a0830151151560a08501528091505092915050565b6020815260006110ee60208301846110f5565b6000602080830181845280855180835260408601915060408160051b870101925083870160005b828110156111da57603f198886030184526111c88583516110f5565b945092850192908501906001016111ac565b5092979650505050505050565b6000806000606084860312156111fc57600080fd5b833567ffffffffffffffff8082111561121457600080fd5b61122087838801610f89565b9450602086013591508082111561123657600080fd5b61124287838801610f89565b9350604086013591508082111561125857600080fd5b5061126586828701610f89565b9150509250925092565b8681526001600160a01b038616602082015260c060408201819052600090611299908301876110af565b82810360608401526112ab81876110af565b905082810360808401526112bf81866110af565b91505082151560a0830152979650505050505050565b8581526001600160a01b038516602082015260a0604082018190526000906112ff908301866110af565b828103606084015261131181866110af565b91505082151560808301529695505050505050565b6000825161133881846020870161108b565b9190910192915050565b600181811c9082168061135657607f821691505b60208210810361137657634e487b7160e01b600052602260045260246000fd5b50919050565b6000815461138981611342565b8085526020600183811680156113a657600181146113c0576113ee565b60ff1985168884015283151560051b8801830195506113ee565b866000528260002060005b858110156113e65781548a82018601529083019084016113cb565b890184019650505b505050505092915050565b838152606060208201526000611412606083018561137c565b8281036040840152611424818561137c565b9695505050505050565b634e487b7160e01b600052603260045260246000fd5b60006001820161146457634e487b7160e01b600052601160045260246000fd5b5060010190565b601f8211156114b557600081815260208120601f850160051c810160208610156114925750805b601f850160051c820191505b818110156114b15782815560010161149e565b5050505b505050565b815167ffffffffffffffff8111156114d4576114d4610f73565b6114e8816114e28454611342565b8461146b565b602080601f83116001811461151d57600084156115055750858301515b600019600386901b1c1916600185901b1785556114b1565b600085815260208120601f198616915b8281101561154c5788860151825594840194600190910190840161152d565b508582101561156a5787850151600019600388901b60f8161c191681555b5050505050600190811b01905550565b83815260606020820152600061159360608301856110af565b828103604084015261142481856110af56fea26469706673582212201173ca439cae42ef46dbcd5947b5a31846cb4dc44e7084650848d1117c58eeff64736f6c63430008110033",
  "devdoc": {
    "kind": "dev",
    "methods": {},
    "version": 1
  },
  "userdoc": {
    "kind": "user",
    "methods": {},
    "version": 1
  },
  "storageLayout": {
    "storage": [
      {
        "astId": 3,
        "contract": "contracts/Notary.sol:Notary",
        "label": "owner",
        "offset": 0,
        "slot": "0",
        "type": "t_address"
      },
      {
        "astId": 21,
        "contract": "contracts/Notary.sol:Notary",
        "label": "documents",
        "offset": 0,
        "slot": "1",
        "type": "t_mapping(t_string_memory_ptr,t_struct(Document)16_storage)"
      },
      {
        "astId": 26,
        "contract": "contracts/Notary.sol:Notary",
        "label": "userDocuments",
        "offset": 0,
        "slot": "2",
        "type": "t_mapping(t_address,t_array(t_string_storage)dyn_storage)"
      }
    ],
    "types": {
      "t_address": {
        "encoding": "inplace",
        "label": "address",
        "numberOfBytes": "20"
      },
      "t_array(t_string_storage)dyn_storage": {
        "base": "t_string_storage",
        "encoding": "dynamic_array",
        "label": "string[]",
        "numberOfBytes": "32"
      },
      "t_bool": {
        "encoding": "inplace",
        "label": "bool",
        "numberOfBytes": "1"
      },
      "t_mapping(t_address,t_array(t_string_storage)dyn_storage)": {
        "encoding": "mapping",
        "key": "t_address",
        "label": "mapping(address => string[])",
        "numberOfBytes": "32",
        "value": "t_array(t_string_storage)dyn_storage"
      },
      "t_mapping(t_string_memory_ptr,t_struct(Document)16_storage)": {
        "encoding": "mapping",
        "key": "t_string_memory_ptr",
        "label": "mapping(string => struct Notary.Document)",
        "numberOfBytes": "32",
        "value": "t_struct(Document)16_storage"
      },
      "t_string_memory_ptr": {
        "encoding": "bytes",
        "label": "string",
        "numberOfBytes": "32"
      },
      "t_string_storage": {
        "encoding": "bytes",
        "label": "string",
        "numberOfBytes": "32"
      },
      "t_struct(Document)16_storage": {
        "encoding": "inplace",
        "label": "struct Notary.Document",
        "members": [
          {
            "astId": 5,
            "contract": "contracts/Notary.sol:Notary",
            "label": "timestamp",
            "offset": 0,
            "slot": "0",
            "type": "t_uint256"
          },
          {
            "astId": 7,
            "contract": "contracts/Notary.sol:Notary",
            "label": "owner",
            "offset": 0,
            "slot": "1",
            "type": "t_address"
          },
          {
            "astId": 9,
            "contract": "contracts/Notary.sol:Notary",
            "label": "hash",
            "offset": 0,
            "slot": "2",
            "type": "t_string_storage"
          },
          {
            "astId": 11,
            "contract": "contracts/Notary.sol:Notary",
            "label": "imageURI",
            "offset": 0,
            "slot": "3",
            "type": "t_string_storage"
          },
          {
            "astId": 13,
            "contract": "contracts/Notary.sol:Notary",
            "label": "description",
            "offset": 0,
            "slot": "4",
            "type": "t_string_storage"
          },
          {
            "astId": 15,
            "contract": "contracts/Notary.sol:Notary",
            "label": "revoked",
            "offset": 0,
            "slot": "5",
            "type": "t_bool"
          }
        ],
        "numberOfBytes": "192"
      },
      "t_uint256": {
        "encoding": "inplace",
        "label": "uint256",
        "numberOfBytes": "32"
      }
    }
  }
}